:020000041000EA
:1000000000B5324B212058609868022188439860DF
:10001000D860186158612E4B002199600221596106
:100020000121F02299502B49196001219960352056
:1000300000F044F80222904214D00621196600F024
:1000400034F8196E01211966002018661A6600F04E
:100050002CF8196E196E196E052000F02FF8012189
:100060000842F9D1002199601B49196000215960AB
:100070001A491B48016001219960EB211966A021F2
:10008000196600F012F800219960164914480160C1
:100090000121996001BC002800D000471248134993
:1000A000086003C880F30888084703B5996A0420EC
:1000B0000142FBD001200142F8D103BD02B5186610
:1000C0001866FFF7F2FF186E186E02BD00000240BE
:1000D000000000180000070000035F00212200005C
:1000E000F4000018222000A00001001008ED00E03C
:1000F00000000000000000000000000074B24E7A12
:1001000000200420F7010010C3010010C5010010F9
:10011000C1010010C1010010C1010010C101001097
:10012000C1010010C1010010C1010010C701001081
:10013000C1010010C1010010C9010010CB01001065
:10014000CD010010CD010010CD010010CD01001037
:10015000CD010010CD010010CD010010CD01001027
:10016000CD010010CD010010CD010010CD01001017
:10017000CD010010CD010010CD010010CD01001007
:10018000CD010010CD010010CD010010CD010010F7
:10019000CD010010CD010010CD010010CD010010E7
:1001A000CD010010CD010010CD010010CD010010D7
:1001B000CD010010CD010010CD010010CD010010C7
:1001C00000BE00BE00BE00BE00BE00BEEFF3058054
:1001D000103800BEF2EB8871C8190010E819001041
:1001E0003802001090A31AE71E481F49086006C88D
:1001F00081F3088810471D480068002801D019487D
:10020000F3E70DA40ECC002902D000F012F8F9E7B4
:100210001749184A002000E001C19142FCD116495B
:100220008847164988471649884700BEFDE701C937
:1002300001C29A42FBD37047E8190010C0000020A9
:10024000E8010020101B0010000004200000042022
:10025000101B0010001004200010042000000000FB
:10026000704700000000000008ED00E0000000D032
:10027000E8010020D00500204915001039030010C6
:1002800041150010F8B5C04606480749091A8B10F9
:10029000C90FC91810B5491003D0044B002B00D06A
:1002A000984710BDE8010020E80100200000000090
:1002B000054B10B5002B03D00449054800E000BFF2
:1002C000FFF7E2FF10BDC04600000000A0040020C0
:1002D000C018001010B50421162000F007F9802284
:1002E000054BD2001A64054ADA64054B1A680123EB
:1002F0009343044A136010BD00000540D430000051
:100300003C0005403C100540042110B50C2000F0D5
:10031000EDF810226421054BDA6778329950044BCE
:100320001A6801239343034A136010BD000005407F
:100330007800054078100540F0B5D6464F46464651
:100340005F4DC0B501F0E8F9FFF7C4FFFFF7DCFF30
:10035000EA6C5C4B5C491C68994693009B18180139
:10036000C01A400100F0DCFF0300882764206340CE
:10037000564A1B041B0C1360EB59642158439046EA
:1003800000F0CEFF0300524E5248346863401B0415
:10039000514C1B0C236000F097FC4A46EB6C126832
:1003A0004E4892465843484900F0BAFF53464246E9
:1003B00043401B041B0C1360EB59326858009246F3
:1003C000C01803016421C01800F0AAFF534643403F
:1003D0001B041B0C3F48236000F076FC4A46EB6C84
:1003E000126858019146C01A8000C0183649800032
:1003F00000F096FF4B46424643401B041B0C136023
:10040000EB59336833481B041B0C236000F05CFC81
:10041000FA2400266400E86C2A4B60432A491F68CE
:1004200000F07EFF7840294B0004000C1860882300
:10043000EF58274B30001B682949984600F070FFA1
:100440006421784300F06CFF434658400004224B7F
:10045000000C18600A2000F037FC224B2D360334C4
:10046000FF369C42D7D196241F4E2401E86C154BD1
:10047000604315491F6800F053FF7840134B000498
:10048000000C18608823EF58114B30001B6814498A
:10049000984600F045FF6421784300F041FF434651
:1004A000584000040C4B000C18600A2000F00CFCB3
:1004B000F9232D3E033CFF3E5B009C42D6D1A7E7CB
:1004C0000000054048000540204E0000481005404F
:1004D000840005408813000084100540BE0500001C
:1004E0006C0700006209000030E60200094A830040
:1004F0009A1810B514684022544080322240064CAD
:10050000C000A44663441A60044B9C4660444160AA
:1005100010BDC04604C0014004D00140004001406D
:100520000FB400B5084883B001F044F9049B002BD8
:1005300007D005A91800019100F0E8FF034801F079
:1005400039F9012000F0FAFFC0180010D01800108F
:1005500070B5EFF3108C72B60D4D2B68002BFCD0EC
:10056000BFF35F8F0724CB08C618C05C01230C4083
:10057000A3401C000440034207D118433070BFF36E
:100580005F8F2C608CF3108870BD1000FFF7C8FFE0
:100590002C0100D0044A1078431CDBB2172B00D981
:1005A000102313707047C046980100200021044BAF
:1005B000044ABFF35F8F02C39342FAD17047C0462B
:1005C000000100D0800100D0054B064A1360064AA6
:1005D000136053609360D3601361536193617047FC
:1005E0008080808000E400E004E400E01F231840E5
:1005F0001E3B8340002905D0C021044A49005350C6
:1006000013607047802201498B50FAE700E100E057
:1006100070B50D00EFF3108672B60F4A1368002B09
:10062000FCD0BFF35F8F0D4B10309B6884001B59CB
:100630000B4A934203D09D4201D000F093FD074B3B
:100640009B681D51BFF35F8FBFF35F8F0022024B8A
:100650001A6086F3108870BD240100D000ED00E020
:10066000CD010010024B9C46614489000160704737
:100670004000003470B5114C114DAC420FD2FF2632
:100680002368002B0CD0FFF785FF01002000FFF747
:10069000E9FFA680BFF35F8F0834AC42F0D370BD92
:1006A000FFF778FF01002000FFF7DCFF2671BFF3A2
:1006B0005F8F0834AC42E3D3F1E7C046E00100208D
:1006C000E80100200A4B1968EFF3108072B60A683F
:1006D000002AFCD0BFF35F8F1B68BFF35F8F00223F
:1006E0001A6080F3108840BF002000217047C04688
:1006F000CC050020F0B5DE4657464E464546E0B5EF
:1007000083B0EFF3058203231340B54A9900525892
:100710000091904601229A40B24B93461A60B24B28
:1007200001932EE043469B881BB2002B00DB99E02F
:1007300043469B79002B00D0DDE0434608241C5F34
:10074000002C00DA06E143465A6963001B19DB00FE
:10075000D3189D68DC686B1C00D107E1A34B00999E
:100760009C4661449A6A0B69A81A9B1A984200D267
:100770000D619E4800F03EFB8C4200DDEAE000D1B6
:1007800026E15B4699484363434608229B5E9946AF
:10079000002BC7DB424652695B0092464B44DB00AC
:1007A0009A4453469E68DF6800F024FB8F42B9DC10
:1007B00000D100E1002F00DAE1E0524653465469CF
:1007C0001B69019A934200D1D4E041465246082069
:1007D000085E5288000421001043984704000D0071
:1007E00023002B4300D1CAE0002D00DBE7E03000FE
:1007F0003900001BA94153469860D96000229A5ED7
:10080000002A8FDB43465D6953009C18E4002C19D5
:10081000A768E4688C4200DD84E702D1874200D9F2
:1008200080E74646328108360DE08C4200D1D3E0A5
:100830001E000023F25E002A0ADB53009C18E4002D
:100840002C19A768E4689B18DB00EB188C42ECDDE0
:1008500053461A804B46338043469B881BB2002B7D
:1008600000DA65E743461A69EFF3108172B6136840
:10087000002BFCD0BFF35F8F43469E880123424686
:100880005B42938036B21369BFF35F8F00221A6018
:1008900081F31088002E00DA4AE743465D69083389
:1008A00042469C467700BF19FF00EF19BB686046BF
:1008B00098460823D15E9246FC68002907DA0EE0CC
:1008C000A2424FD018000023C15E002906DB4B0076
:1008D0005B18DB00EB18DA68A242F1DD52460680B5
:1008E0000023FE5E3980002EDCDA904643469B7979
:1008F000002B00D121E70023424693714346464630
:100900000821595E08364B1C24D047468946556954
:1009100002E006004B1C18D04B005B18DB00E81807
:100920000A008C46E95E43881BB2002BF1DA0123F2
:100930005B42DC178360C4604A4503D031803B8949
:1009400003803A81E1464B1CE6D14C46B846002C68
:1009500000DBF8E640BF03B0F0BCBB46B246A94698
:10096000A046F0BD9A684245ACD9B7E7631C00D0F9
:10097000F4E6FEE6200023699847002825D1534677
:1009800042461B8813811269EFF3108372B6116817
:100990000029FCD0BFF35F8F4246514652880A803F
:1009A0004246494651801269BFF35F8F00211160B2
:1009B00083F31088B6E6864200D8FBE6B2E60B4821
:1009C00000F018FA0019694115E76568246807E71F
:1009D000854200D8D5E6BDE7874200D828E737E74B
:1009E000B80400203C700540F506001000400540AA
:1009F00070B52E4C2569002D04D00A212C48FFF734
:100A000031FE70BD2B4E0321300000F0E9F9E660A5
:100A1000FFF7C0FD284B03229C46D02322701B0603
:100A20001B6801216370254B6044A3600F23800085
:100A300020610220638063694942A18019800231EC
:100A4000198647311D83585218315A5275325C3914
:100A50009952183201319952183201319952183293
:100A600001319952083518329D520231183299528B
:100A7000183201319952183201319952183201312C
:100A800099521832013199521832013199520C4B56
:100A90000C49DC6001303562FFF7BAFD012103200B
:100AA000FFF7A4FD084B1D60A7E7C0469C0100208E
:100AB000CC0500200040054040000034FFFF10003E
:100AC000B8040020F50600103860054070B501003C
:100AD0000469EFF3108C72B620680028FCD0BFF3D5
:100AE0005F8F02200D5E4C6968004019C000241819
:100AF000002D37DB208848800869BFF35F8F002610
:100B000006608CF31088E3606388049801332061E9
:100B10005B0405985B0CA26060611A1C002B1FD05F
:100B200093B22804628018430A69EFF3108C72B6FE
:100B30001368002BFCD0BFF35F8F8B8823808D80E0
:100B40000B69BFF35F8F00221A608CF310880B785B
:100B500001329A40CB6808498C4663441A6070BDE4
:100B60000122DDE70B69BFF35F8F00221A608CF36F
:100B7000108801204042F2E73C20000010B5438974
:100B80000A1493421ADD53009B184269DB00D31804
:100B90000469EFF3108C72B62268002AFCD0BFF310
:100BA0005F8F5A88090494B2090C8A4208D00369FD
:100BB000BFF35F8F00221A608CF31088002010BDF5
:100BC0008022120214435C80012302698371BFF307
:100BD0005F8F002111608CF31088044902788C46E5
:100BE0009340C268012062441360E8E73C200000A3
:100BF000F0B504000D0006267642F717C6463619F2
:100C00006F4100B582B08F4214D811D000F0FAF8CD
:100C100032003B00121A8B41002B17DC002B47D00F
:100C20002000290000F0F8F802B080BCB846F0BD02
:100C30008642EBD90022002316001F0000F0E2F8E4
:100C400032003B00121A8B41002BE7DD00F0DAF88E
:100C500032003B00121A8B41002B0ADB0023019368
:100C6000154B3200009315483B00FFF72FFF00287B
:100C7000D6DB00239C46B046114A124E736A9F424F
:100C800004D8B16A8845CBD99F42C9D11168EFF326
:100C9000108072B60B68002BFCD0BFF35F8F136817
:100CA000BFF35F8F6146196080F3108820BFE5E7CE
:100CB000002AB5D0CAE7C046C50600109C01002036
:100CC000CC0500200040054070B5060000F09AF801
:100CD000FA2204000D00002330000021920000F0F1
:100CE000B1FB8023001969411B06994202D3012000
:100CF00002494042FFF77CFF70BDC046FFFFFF7F07
:100D0000F0B5CE46474680B504000D0083B0EFF342
:100D100005878846002F3ED12E4EA1463378F068D5
:100D200004339B00816A1B58601A5B1A98420ED3E9
:100D300020BF294900204B6AAB4203D38A6A0130A5
:100D4000944231D803B0C0BCB946B046F0BD00F003
:100D500059F822002B00121A8B41002B2FDB1F4B5E
:100D60002200009330002B000197FFF7AFFE011E19
:100D700025DD194B5A6AAA421BD220BF3000FFF76B
:100D8000FDFE154A0020536A4345DBD3926A0130C9
:100D90009145D7D908E0104900204B6AAB42D1D326
:100DA0008A6A0130A242CDD25B1B5A1E9341D8B24F
:100DB000C8E79B6A9C42E1D9AA42DFD1DDE7064A37
:100DC0000020536A4345BDD3926A01209145B9D9A9
:100DD000EAE7C0469C01002000400540C50600101F
:100DE00010B5024A0248FFF7B3FB10BDD41800103B
:100DF000680400200300416A0A00986A596A8A421E
:100E0000FAD17047034B596A0A00986A596A9142AD
:100E1000FAD1704700400540064A536A9942FCD80F
:100E200007D1044B02E05A6A914202D19A6A824287
:100E3000F9D3704700400540F8B5DE464E465746A8
:100E40004546E0B58B4605000A991800160000F0EB
:100E500067FA0A9B6C001F02324B64199C46A4007F
:100E60006444636881469F4200D967602B1FDBB2F0
:100E70009846012B30D9C02380229B01E318120130
:100E80001A60294BAD0059599A4600291BD17301AC
:100E9000E026226853401E40802342465B01E3184F
:100EA0001E60012A30D9802380229B01E3181201A1
:100EB0001A6053464A4667605A51F0BCBB46B24678
:100EC000A946A046F8BD586900F02AFA013043004F
:100ED0001B18033BFDD2DAE75B46012BCBD1C023C5
:100EE00003229B01E3181A60023AA3681A42FCD05D
:100EF0007301E0262268AD0053401E4080230A4A59
:100F00005B019246E3181E605A4621685140032255
:100F10000A401A6001225B469A40A3681A42FCD03C
:100F2000C1E7C046008000406C040020F0B5464692
:100F30004F46D646C0B51F00344B44009C4624188B
:100F4000A4006444636888461600FF2B02D88023FF
:100F50005B006360031FDBB29A46012B30D9C023CC
:100F600080229B01E31812011A60294B8500595910
:100F7000994600291BD17301E026226853401E4088
:100F8000802352465B01E3181E60012A30D980237A
:100F900080229B01E31812011A6080235B006360CA
:100FA0004B465F51E0BCBA46B146A846F0BD586911
:100FB00000F0B6F9013043001B18033BFDD2DAE71D
:100FC0004346012BCBD1C02303229B01E3181A60B7
:100FD000023AA3681A42FCD07301E0262268850019
:100FE00053401E4080230A4A5B019146E3181E606D
:100FF00042462168514003220A401A6001234246BA
:101000009340A2681342FCD0C1E7C0460080004074
:101010006C040020014B8000C05870476C04002015
:10102000F8B5040021481E0017000D0000F078F903
:101030000100380000F074F9069B36041B031E43C0
:101040002368002B20DB1A4B1A49E3185A1E9341E0
:101050008022920194465B421B0B174A1B03634498
:101060001360164A13601F000A689743FBD1144BA4
:101070002560E2182123A06013602368002BFCDAAE
:101080000823E6601360F8BD3F2322681340AB429B
:10109000D9D1A3681B051B0D8342D4D1EE22E3688E
:1010A000D2021340B342CED1EDE7C046001BB700D9
:1010B0000040FDBF08C0004000E0004000F00040DC
:1010C000043000008023024A9B000B43D362704728
:1010D00000800540142310B50100188804331B88D4
:1010E000984710BD162310B50100188802331B88DD
:1010F000984710BDF8B54746CE4680B50F1E19D0AB
:1011000014239946043304000025012698464B46D3
:101110001888434621681B88984701C4431E98419C
:10112000013540420640AF42F1D13000C0BCB94663
:10113000B046F8BD0126F8E7AA23064A1B01136052
:101140002F230549D360054B19605368002BFCDA47
:101150007047C0460040024000B0FA000060024004
:101160007047C04610B50148FFF7DAF9F8180010CB
:1011700070B5074D074EB54209D20024013E761BDB
:10118000B60808CD984723000134B342F9D170BDA9
:1011900080180010BC180010054B064A06491A605A
:1011A000064A074B1A6010000B689843FBD1704742
:1011B00000E00040BFCDFBFE08C00040FE7F3C00C9
:1011C00000F00040044BDB6C002B03D18022034B6A
:1011D000D2021A607047C046000011504C201150D6
:1011E000044A054B1A60054A1368DB018033FBD1C2
:1011F0007047C046FFFFFF0100F0004008C00040FC
:101200004022034B9A675A671A67DA667047C046EE
:1012100000F0014010B5FFF7C9F910BD70B5044DDD
:10122000044CA968C022200000F062F9AC6070BDD7
:1012300000ED00E000000020002310B5294C82B032
:10124000A367FFF779FF0122274B1A60636C012B1C
:10125000FCD10322254B1A60224A936B012BFCD14F
:10126000013300930121224A22480433FFF7D8FEBC
:10127000052301210093204A2048FFF7D1FE0022D8
:10128000022104201E4BFFF751FE00220121052000
:101290001C4BFFF74BFE0022002107201A4BFFF7E3
:1012A00045FE002200210820174BFFF73FFE802358
:1012B000DB000093002200210920134BFFF7BCFD47
:1012C0000022104B00210620FFF730FE0420FFF71C
:1012D000A1FE0E4900F024F801000020FFF7F2FE05
:1012E00002B010BD008000403CB0004030B0004073
:1012F000002F685900800240008C864700C00240E1
:10130000001BB70040597307006CDC0240420F001D
:1013100001480421014B1847C0010020F5100010BE
:10132000114A936F9B0813D210665166002905D0AD
:10133000FFE7FFE7FFE7516F106F704704B5002824
:1013400001D00020C04300F08BFA002104BDC0464C
:10135000F0B5146E556E576F166FFFF7E5FF146604
:10136000556657671667F0BD000000D010B50148FC
:10137000FFF7D6F804190010132370B51D78012D5E
:1013800019D014DD1D48FFF7ADFE06001C48FFF71D
:10139000A9FE1C4C80223100200000F0A9F8022D8B
:1013A00006D01948FFF796FE184B186070BD154C13
:1013B000174BA364F5E7174B124C23606360A360DF
:1013C000E36023616361A361E36123626362A362FB
:1013D000E36223636363A363E36323646364A364DB
:1013E000E36423656365A365E36523666366A366BB
:1013F000E36623676367A367E367D9E753440000A5
:1014000053460000680300204C330000C80400204D
:10141000191400106D13001007B5604601880A0A00
:101420000230DF2AFAD1C9B2820804D30288408888
:101430000004104300E00068014A5050039007BDCB
:101440006803002051434343C9188C46110C83B2F2
:101450004B4310B4040C614392B280B250436243D8
:101460001C041B0C001910BC59411304120CC018A9
:10147000514161447047000010B50148FFF750F832
:101480001C190010132310B510481C78FFF72AFE12
:101490000100012C0AD003DD80220D4800F028F85D
:1014A0000C48FFF717FE0C4B186010BD084C542277
:1014B000200000F01DF82200084980322368002B2C
:1014C00000D1216004349442F8D1E9E7534600008A
:1014D000CC0400204C330000C80400207914001014
:1014E00001480421014B1847D0010020F5100010DD
:1014F000014B5B6818470000D001002010B50028A0
:1015000000D110BD00F00AF9FBE7C04610B5094A4A
:101510000300146884B0002C08D001220091064812
:10152000524203A9A047012004B010BD00F042F9C7
:101530000020F9E79C040020FD14001000BEFDE728
:1015400010B5FFF7FBFFC04670B5FFF711FE074D62
:10155000074EB54209D20024013E761BB60808CDDD
:10156000984723000134B342F9D170BDBC18001074
:10157000C0180010030010B5080011001B68984740
:1015800010BDC046F0B5C64600B5437D07000D004E
:101590001600002B38D0002A2EDD00216A1E90464E
:1015A0006A5C037D4C1C00200A2A0CD0A64216D08F
:1015B00043461B5D21000D3B5A4253416A5CDBB23E
:1015C0004C1C0A2AF2D1002BF0D1884217DB0221F1
:1015D00010483B689847A64207D02000E8E78642BB
:1015E00003DD311A3B6828189847AD19013D2B7867
:1015F0000D3B5A4253413B7580BCB846F0BD091AB9
:101600003B6828189847E2E70368110028009847CC
:10161000F2E7C046C4190010F0B5DE4657464E4604
:101620004546E0B585B017001C0006000D00FFF729
:10163000E9FB0023314A12184B41802109068B42F5
:1016400002D301222E4B52422E4908008A4600F056
:101650000FF901906B1C03D1300000F0C9F80500B0
:10166000002C26D0284B9846284B1C68002C15D0FF
:10167000002F21D1264F02E02469002C0ED02368D0
:10168000002BF9D03B68002B01D09C42F4D1200004
:101690002A003100C0472469002CF0D1019B002BA7
:1016A00028D1280005B0F0BCBB46B246A946A046EA
:1016B000F0BD184B9846D7E7154B994602ABDF1D96
:1016C0000A239B4602E02469002CE7D02368002B04
:1016D000F9D04B461B68002B01D0A342F3D12A005E
:1016E00031002000C0475B460122390020003B70DA
:1016F000C047E8E7504600F0ABF8D2E740420F00A1
:10170000FFFFFF7FE00100208515001094040020FA
:10171000980400207515001000207047F0B5CE46E3
:10172000474680B583B06B460600DD1D2870FFF785
:1017300069FB00231A4A12184B41802109068B428B
:1017400002D30122174B524217490800884600F085
:101750008FF8164B81461C68002C14D0144F02E001
:101760002469002C0FD02368002BF9D03B68002B94
:1017700001D09C42F4D1200001222900FFF702FF92
:101780002469002CEFD14B46002B05D1300003B06B
:10179000C0BCB946B046F0BD404600F059F8F5E788
:1017A00040420F00FFFFFF7FE00100209404002073
:1017B0009804002070B5040000F01AF8012301001D
:1017C000050001222000FFF727FF084B1C68002CB2
:1017D00006D06368002B05D098472469002CF8D107
:1017E000280070BD2469002CF3D1F9E7940400208F
:1017F00010B583070AD00300032102E001330B4236
:1018000005D01A78002AF9D1181A10BD03001968FA
:101810000C4A0D4C8A188A4322420FD15968094A52
:1018200004338A188A43224208D15968054A04338E
:101830008A188A432242F1D000E001331A78002A44
:10184000FBD1E1E7FFFEFEFE80808080F8B5C04658
:1018500001B40248844601BC604700BF5D0100201E
:1018600001B40248844601BC604700BF85010020E6
:1018700001B40248844601BC604700BFC10000209B
:1018800099110010C511001011130010E11400107F
:10189000791300108514001039120010E1110010A6
:1018A0000112001015120010750600101D12001014
:1018B000F109001061110010C9050010B1020010FB
:1018C0000A2A2A2A2050414E4943202A2A2A0A005D
:1018D0000A000000486172647761726520616C6182
:1018E000726D20256420616C726561647920636C7F
:1018F00061696D6564000000486172642061737302
:10190000657274006D697373696E6720646F7562C8
:101910006C652066756E6374696F6E000000000070
:1019200052656C6561736500626F6F74325F773208
:101930003571303830000000302E3100322E312E1B
:10194000300000007069636F5F77000070776D5F33
:10195000736572766F000000466562203131203277
:101960003032350006005250D3F075422019001075
:1019700006005250E182887F28190010060052505C
:101980003ABCA9113819001006005250ABB360538D
:101990003C19001006005250BBFF3CB64419001021
:1019A00006005250861C03024C19001006005250CB
:1019B0005422A29D5819001005005250DE65F468AB
:0819C000101B00100D0A0000CD
:1019C80064190010701900107C1900108819001093
:1019D80094190010A0190010AC190010B8190010C3
:1019E800F0B5C646150000B504001E000268EFF306
:1019F800108172B61368002BFCD0BFF35F8F0423ED
:101A0800E356002B2DDB2268BFF35F8F00201060A8
:101A180081F31088D0221206127852B290469A4268
:101A280003D1002080BCB846F0BD00270BE0236836
:101A3800BFF35F8F1F6081F310882800310000F02A
:101A480033F80028EDD12268EFF3108172B61368DD
:101A5800002BFCD0BFF35F8F23797F2BE7D9434658
:101A680002E0D0231B061B6823712368BFF35F8F36
:101A780000221A6081F310880120D3E70268EFF38F
:101A8800108172B61368002BFCD0BFF35F8FFF2361
:101A980003710368BFF35F8F00221A6081F3108817
:101AA80040BF70477047C04601B40248844601BC35
:101AB800604700BF010D001010000000000000008A
:101AC800000000000000000000000000000000000E
:101AD800E8010020000000000000000000000000F5
:101AE800503300004C3300005433000052330000E0
:101AF8004D5300004D4300005334000043340000B0
:081B08000000000000000000D5
:04000005100001E9FD
:00000001FF
